:020000040040BA
:10000000A83900202D0340002B0340002B034000A3
:100010002B0340002B0340002B0340000000000096
:100020000000000000000000000000002B03400062
:100030002B034000000000002B0340007506400029
:100040002B0340002B034000150640002B0340000B
:100050002B0340002B0340002B0340002B034000E8
:100060002B0340002B0340002B034000CD28400011
:10007000E12840002B0340002B0340002B034000ED
:100080002B0340002B0340002B0340002B034000B8
:100090002B0340002B0340002B0340002B034000A8
:1000A0002B0340002B0340002B0340002B03400098
:1000B0002B0340002B0340002B0340004D05400064
:1000C0002B0340002B034000E13040002B03400095
:1000D00008B50548054B1B1A062B00D808BD044B74
:1000E000002BFBD09847F9E71CBD40001FBD400026
:1000F0000000000008B50748074B1B1A9B1003EBD4
:10010000D373591000D108BD044A002AFBD0904790
:10011000F9E700BF1CBD40001CBD4000000000000E
:1001200010B5064C237843B9FFF7D2FF044B13B147
:100130000448AFF300800123237010BDD0090020D4
:10014000000000001CBD400008B5084B1BB108486A
:100150000849AFF300800848036813B1074B03B1A7
:100160009847BDE80840FFF7C5BF00BF000000008A
:100170001CBD4000D40900201CBD40000000000050
:10018000F0B5154D8DB001AC06460F460FCD0FC42E
:100190000FCD0FC495E8070084E80700019A0023FB
:1001A000B7FBF2F2B2FBF6F207E0013301AA52F814
:1001B0002320B7FBF2F2B2FBF6F2B2F5807F02D950
:1001C0000B2BF2D104E00B2B02D042EA032001E01A
:1001D0004FF6FF700DB0F0BD38B0400070B5064668
:1001E00008680D4630B10B4B896898474FF6FF738E
:1001F00098420DD00446686840B1064BA9689847FC
:100200004FF6FF73984203D044EA00443460002064
:1002100070BD00BF81014000F0B54C688F8A0E8927
:1002200004F00F0427438C7A8D7D374347EA442737
:10023000CC7D47EA05470B6847EA44470C7E01221C
:1002400047EA844703F11004640107510619CC689A
:1002500002FA03F274600E6900EB431404F50277AE
:10026000C4F80C622DB18E8B4D8B45EA0645C4F85F
:100270001852CD7F8C7F05FA03F504FA03F444EAA3
:100280000544846491F8215091F8204005FA03F563
:1002900004FA03F444EA0544446491F8224014B19A
:1002A000046A224302E0046A24EA0202026291F82C
:1002B000254091F8242004FA03F402FA03F242EAFA
:1002C00004428266DB0091F82310FF2202FA03F257
:1002D00001FA03F3C46E24EA02021343C36600204A
:1002E000F0BD0B6910B593420C6806D300EB4410C7
:1002F000CA60C0F80822002010BD4FF6FF7010BD84
:10030000012303FA01F141607047012303FA01F16F
:1003100081607047C06970470123103203FA02F20E
:1003200003FA01F10A4302617047FEE71549164AD4
:1003300010B5914207D1154B154A00210BE05858D2
:100340009850043301E0134C00239818A042F6D3D0
:10035000F1E743F8041B9342FBD30F4A0F4B22F003
:10036000604102F1604221F07F01B2F5803F996067
:1003700003D29A6842F000529A60094B9847094BA1
:100380009847FEE71CBD400000000020D009002077
:10039000A8190020D00900200000400000ED00E076
:1003A000C95A4000B55940002F4A136B03F00303AC
:1003B000012B2E4B0DD003D3116AC9011CD527E0A8
:1003C0002B4A526912064CBF4FF400424FF4FA42D6
:1003D00010E0116AC80100D50BE026491960126AC5
:1003E00002F07002102A02D0202A28D101E0224A0D
:1003F00000E0224A1A6022E01E491960126A02F0E7
:100400007002102A02D0202A04D101E01A4A00E02A
:100410001A4A1A60144B1A6B02F00302022A0CBF2C
:10042000986AD86A114A0CBF996AD96AC0F30A401F
:10043000136801304343C9B2B3FBF1F313600A4AB6
:10044000136B03F07003702B084B04D11A6803215F
:10045000B2FBF1F205E0116B1A68C1F3021122FA46
:1004600001F21A60704700BF00040E400C0000202B
:1004700010140E4000093D0000127A00001BB70066
:100480000A4B98420A4B01D800220CE0094A9042DC
:1004900002D84FF4807206E0074A904294BF4FF4AE
:1004A00000724FF440721A60704700BF3F6F400106
:1004B000000A0E40BF0E1602FF8693037FB5184C4C
:1004C0001F20184B984720460221174B9847174B7F
:1004D00000250193164B01A903932046154B029565
:1004E000984715490B2202264A6020466422134B86
:1004F0000A61CD600E609847204631462A46104B6F
:100500009847104B4FF00042C3F880202046C3F8B4
:100510008021314683F81F531A600B4B98477FBDEB
:1005200000000240652A40000B034000400D03001C
:100530000090D003DD014000EC09002019024000CA
:100540001903400000E100E001034000194B10B521
:1005500019489847194A1A4913680133136002224F
:100560000A60184A1278012A08D1B3F5FA7F1248B6
:10057000154B01D2322200E000229847114B1B7824
:10058000022B16D10D4B6FF4FA711A681C465218E3
:10059000B2F5F97F08480A490B4B01D8322200E036
:1005A000002298472368B3F57A7F02D9034B0022D3
:1005B0001A6010BD1503400000000240140A00201C
:1005C000EC090020180A0020E30240000C4A08B59C
:1005D00000231360032812D8DFE800F0020A0C0E93
:1005E000084A0949137009480022094B984708BD79
:1005F000012202E0022200E00322024B1A7008BD31
:10060000140A0020180A0020EC0900200000024013
:10061000E302400008B51148114B984742070AD53C
:100620000421104B0D48984704210C480E4B984765
:100630000A4804210EE083070ED50221094B074822
:1006400098470A4B01221A6002210448064B98473A
:1006500002480221064B984708BD00BF60140E40B7
:10066000EF2B4000372B4000F32B40001C0A0020EA
:10067000332B4000024B1A6801321A60704700BFEA
:10068000240A0020F0B53B488BB03B4DA8473B4BBC
:100690004FF6FF125A603A4AF02182F823100024E4
:1006A00007229C6037481A60A8473748A847374850
:1006B000A847374B9847374E374F05E0012C02D1FA
:1006C00036482D4B984702240020B047344B012870
:1006D000187007D0324B002C08BF01241D78002D64
:1006E000ECD109E02F48304DA8473048A8470020FA
:1006F000B8470228FBD1EDE72D481F4EB0472A4CE2
:100700002C48A04729464FF40C722B4B2B48984796
:100710002A492B4B284698472A4B0B28014618702C
:1007200001D12948A0472948B047294B69461A8872
:100730009B78ADF800208DF80230264B3022264DF4
:1007400001A81A70A8471F4C244920702448A847C4
:10075000052806D1234B21489847074B2070224893
:1007600098472178104B21489847034B20489847D9
:100770000BB0F0BD82B04000D95B400010E000E05B
:1007800000ED00E09DB04000A6B04000B9B04000D0
:10079000950B40008D584000C10B4000D0B0400088
:1007A00079190020F0B04000535B400004B14000D4
:1007B0002AB1400038B14000275B4000BC14002043
:1007C000355140007819002049B1400059B140002E
:1007D0008FB14000100000204D55400078B040001F
:1007E00054190020CD55400066B140007AB1400058
:1007F00083B140000F4B30B5D86B0F4B10F00100A8
:100800001A780ED10D4D0E4C0E4922B12A6818707F
:100810002260086030BD28682368C31A0B60104648
:1008200030BD1AB1074B0020186030BD0120187090
:1008300030BD00BF000E0E4021000020240A002021
:1008400024000020200A002030B52F4C9BB006A9C0
:1008500007AA08AB20462D4DA8470CAB09A90AAA48
:10086000009320460BAB2A4CA0472A4D2A48A847A4
:100870002A4C099A2A490DA8A0470DA8A847099A09
:100880000A9B28490DA8A0470DA8A8470B9B099AC9
:10089000009325490A9B0DA8A0470DA8A8470B9BCC
:1008A000099A0093069B0DA80193079B1F49029389
:1008B000089B1F4D03930A9BA0471E4C0A221E4B08
:1008C0000DA92046984721461C48A84721461C48A8
:1008D000A84721461B48A8471B4B1AA91B680222A0
:1008E00021F8523D194D0DF115032046A8470DF191
:1008F000150320461649BDF81620A8472046154B7B
:1009000098471BB030BD00BF60140E403B2B400029
:100910008B2B4000CD55400092B14000255D40003A
:1009200099B14000A5B14000B6B14000CCB1400043
:1009300005584000301900205551400000B24000D9
:100940000CB2400017B2400010190020C552400000
:100950009C1200208D54400010B51A4B98471A4C39
:100960002368D8B1333B40F29C72934205D8174BB1
:10097000174898470120174B984722686FF4FA618F
:10098000521840F6B6339A421AD8104B124898477C
:100990000220104B9847114B984710BD6FF4FA6234
:1009A0009B1840F6B632934202D80D48074B984741
:1009B000226841F288339A4202D90A48034B984789
:1009C00010BD00BFF5074000200A0020D95B4000A1
:1009D00020B24000CD0540002EB240004908400042
:1009E00039B2400042B2400008B5014B984708BDFB
:1009F0005909400070B5891A0824073191FBF4F1B8
:100A000002F00702401810F8011CD418082C41FA13
:100A100002F110DD10F8026CC2F1080506FA05F5C6
:100A2000102C41EA050106DD10F8030CC2F110029A
:100A300000FA02F21143012000FA03F3581E0840A5
:100A400070BD000008B5034B187808B9024B9847F1
:100A500008BD00BF300A00201924400010B5074B24
:100A600007491A68087892F8223011680033527CDE
:100A700018BF0123034CA04710BD00BF2C0A002063
:100A8000300A0020B523400038B5002849D12C4950
:100A90008C680D46630903F5001303F207735B02CC
:100AA000DA6B04F01F04012303FA04F414408A7B78
:100AB00009D09A4204D1234B1B780BB1224B18600A
:100AC0000423AB732BE0042A0ED11F4A8B731068EA
:100AD0001C4920B90B701D49516013601FE01C4870
:100AE0001C4B0C7098471AE0012A08D1154B1B7853
:100AF000CBB1154B1A68D20311D51C6013E0104C12
:100B0000A07B03281AD0144B00221A70134B1C60D0
:100B1000134B9847A07B831E5842584138BD022092
:100B200038BD042038BD064B02229A730D4A1A6064
:100B300001225A74002283F82220E0E738BD00BF6A
:100B4000280000202A0A002010E000E000127A00AD
:100B500025C1450001000020300A00202C0A002099
:100B60005D0A4000801A060010B5074C41F60930B6
:100B700023689989054B0904984720B12068044BE4
:100B800012309847012010BD2C0A00203924400063
:100B90006D24400008B50B20054B9847054B0422F7
:100BA0009A73054BFF221A70044B984708BD00BF8B
:100BB000652A400028000020300A00207D234000E4
:100BC0002DE9F043594B95B098470128064600D0CF
:100BD00033E3574B00251B68564CD8731D749D8119
:100BE0005548A047554B984729464FF48040544DEF
:100BF000A847002800F01A8345F208504FF4D57139
:100C0000A847002800F0F4824E4B9847431C024648
:100C100000F0EE820305B3F1D55F03D04A494B489B
:100C2000A04703E34A48A0473546E2E2444FDFF8D5
:100C3000349140F63504B84641F237100021B847E8
:100C400008B9444809E044F22950002D14BF494630
:100C50004FF4FC11C04720B93F484049354B9847F5
:100C6000CEE2384B9847021E09DA500040F15F810E
:100C70002F4B1B68DA7B42F00802DA7357E1013C24
:100C8000DAD136492B4B36489847B9E22D4F41F21D
:100C9000680444F201503349A84738B9C4F5835277
:100CA00031490832234B31489847BFE2B847002802
:100CB0000CDA00F0C040B0F1804F40F0AF821C4B26
:100CC0001B68DA7B42F00802DA73A7E214F1FF3402
:100CD000DFD2274824496CE2154C0122236841F2F7
:100CE00003109A814FF48031A847002800F09E82BB
:100CF000204B9847002800F0998224681E4F04F189
:100D00001205284680217A220423B8470138B846C4
:100D1000032803D8DFE800F00406083212232EE08F
:100D200014232CE022232AE0302328E0890A400003
:100D30002C0A0020535B4000FDB240001B24400001
:100D40003924400065244000E8B2400015B340005B
:100D50003CB3400049B340005AB340006CB540007A
:100D60006CB3400000801F407AB2400099B340004D
:100D7000BDB34000690B4000F509400040238021CD
:100D80006022237428460823C0478E4B00F00702D8
:100D900053F822304FF47A7253438B4AC0F3C300A6
:100DA00052F8202080215343284623603E220C2302
:100DB000C04740F6FF739842844F804612D080218E
:100DC0002F2203232846B84708F10108023008FA09
:100DD00000F88021284650220423B84708FA00F082
:100DE000800A6060A18943F207100904784B984794
:100DF000002800F01B82774B1B681B7C3F2B40F2C6
:100E000085800021009174484FF400720123734CD7
:100E1000A047002800F00A82714D322402A8A8479A
:100E2000002800F00382013CA4B2002CF6D1694BEB
:100E3000802118683E220C231230644CA047029F88
:100E400040F6FF7307F0020732249842FFB20ED13A
:100E5000634D03A8A847002800F0E8810134A4B23C
:100E6000362CF6D15B4B1A68039B5B0853605C4DD4
:100E700003A8A847002800F0D9810134A4B27F2C30
:100E8000F6D9584D584C2878A047032824D92878FB
:100E9000A047031FDBB2042B98BF544A044694BFFB
:100EA00052F82310524943F20610494B9847002844
:100EB00000F0BC814F4B984710F0800F4E4B03D091
:100EC0004E484F499847B1E1424A4E481268214680
:100ED000547498474C4B98474C4B984700B3FFB11C
:100EE00043F206104A493A4B9847002800F09E8189
:100EF000404B9847010602D54048464959E1354BD9
:100F000001221B6883F82220434A1A603E4B98470F
:100F100006E041F210104FF40071A84710B15FE1F4
:100F20002B4D0B24013C14F0FF04F2D17EE1294B40
:100F30001B68DB7BDA0708D445F203100021244B41
:100F40009847002800F0728107E045F60230002142
:100F50001F4B98470028EFD168E11E4C254B2568B0
:100F600098472368000CDB7BA881DB0773D52B4BEC
:100F70009847002800F05A812768802107F1120560
:100F8000602208232846114CA0470E4B00F00702B0
:100F900053F822304FF47A725343214AC0F3C3000E
:100FA00052F820208021534328463B607E220223B2
:100FB000A047B8B32846802130221623A04701302D
:100FC000400247E08CB24000A8B24000F509400062
:100FD000392440002C0A0020081108009124400008
:100FE0003D254000300A0020A523400058B54000B0
:100FF0000000B70165244000535B4000D8B34000B7
:101000004BB24000FCB340005D0A4000AF234000FB
:101010000001B90362B2400000751903690B40007A
:1010200018B5400080213E220C232846A04780218D
:1010300080462F2203232846A04708F101080230EA
:1010400008FA00F88021284650220423A04708FA15
:1010500000F0800A78607C4C43F2071023687B4DD7
:1010600099890904A847002800F0E0802368DA7B0A
:10107000D00706D4764B1878764B984703283ED88D
:101080005AE0998941F237100904A847002800F076
:10109000CD80012500957048002108222B466F4F16
:1010A000B847002800F0C28004A829466C4B984736
:1010B000002800F0BB806B4B9847002800F0B680FA
:1010C00040213822042304A8674FB847A84203D020
:1010D00011D302280FD102E023681A220DE040212B
:1010E0002F222B4604A8B8470128236801D13022BB
:1010F00003E0202201E0236810221A74BAE7524C60
:101100002368DA7BD10715D5998941F23710090494
:101110004E4DA847002800F0898041F206100221B8
:10112000A847002800F082802368042159744F48A2
:101130004F4B98474F4B98474F4B9847002843D009
:10114000414D2B68DA7BD20702D44A4B98473BE0EB
:101150001B7C102BF9D901240094484848494022AF
:1011600023463E4FB847002860D004A821463C4B98
:10117000984700285AD03B4B9847002856D0414BFF
:101180009847030601D5404812E0042304A84FF411
:1011900000714FF4BC72344FB8470F28D5D004A863
:1011A0004FF400714FF488721023B84718B13748D4
:1011B00037492F4B86E6374B98472B681A6883F8D8
:1011C000224052001A60C0E71F4B1B68DB7BD80728
:1011D00006D541F210104FF400711C4B984728B30C
:1011E000234B2D489847184B00221B689A7324E024
:1011F0000025154B1B68DB7BD9077FF598AE15E5FD
:101200001B4B26489847104B02221B684FF4804026
:10121000DA7300210D4DA84740B137E545F602309D
:1012200000210A4DA84700287FF456AD104B1C48FA
:101230009847054B03261B689E731A4B9847304608
:1012400015B0BDE8F08300BF2C0A0020392440000F
:10125000300A0020A52340003311080091244000EB
:101260009D254000D9254000F5094000FCB3400011
:10127000535B40005D0A4000AF23400006110800A8
:1012800001FFFF8065244000D8B3400018B440003F
:10129000ACB540001B2440003EB4400052B44000B6
:1012A00066B44000450A400008B5054B984728B988
:1012B000044B9847044B1B68D87B08BD002008BD31
:1012C000890A4000450A40002C0A002008B5054B59
:1012D000984728B9044B9847044B1B68586808BDC9
:1012E000002008BD890A4000450A40002C0A002061
:1012F000002070472DE9F347294B0F4615469847C4
:101300000446002848D1274EDFF8D080DFF8D0907F
:10131000DFF8A4A0D8F8003041F20D109989090433
:10132000C84710B3D047C20528D4013EF2D11E49A8
:101330001E4B1F48984718E0790200E03946012308
:10134000009330464FF400722B461A4FB84700B94D
:101350000BE0194B984719490346014049B1184819
:10136000184906F01302114CA047174B9847052463
:1013700012E0164B1D80164B1D800DE0154B164ECE
:10138000012D98BF1E46154B1B68DB7B03F008033D
:10139000DBB2002BD2D1CFE72046BDE8FC8700BFEF
:1013A000890A4000410D0300F0B24000535B400049
:1013B0008AB440009124400065244000000058E4B5
:1013C000A3B440007BB54000450A4000320A00202B
:1013D000280A002011110800121110002C0A002008
:1013E0003924400010B5064B0C469847054B10B900
:1013F0001880052010BD1A880020141B1C8010BD09
:101400009D254000320A002010B50E4B9847A0B130
:101410000D4B198899B90D4B1B88012B02D10C4B30
:1014200098470CE043F20C100A4CA04701460028F4
:10143000F5D143F20C10A047F1E7052010BD0020C4
:1014400010BD00BFD9254000320A0020280A002024
:10145000450A400039244000F7B51B4B0F4614469F
:101460009847054600282CD1184B194E012C88BFEF
:101470001E46184B1B68DB7B03F00803DBB20BB97D
:10148000790200E039460123009330464FF40072A0
:101490002346114FB84700B90BE0104B984710494D
:1014A0000346014049B10F480F4906F019020F4C9D
:1014B000A0470F4B9847052503E00E4B1C800E4BB1
:1014C0001C802846FEBD00BF890A4000199110000B
:1014D000189108002C0A0020912440006524400047
:1014E000000058E4DEB4400093B54000535B400078
:1014F000450A4000320A0020280A002010B5064B99
:101500000C469847054B10B91880052010BD1A8865
:101510000020141B1C8010BD39264000320A002018
:1015200010B50C4B984780B10B4B198879B90B4B10
:101530000B4C1B88012B01D1A04708E043F20C1093
:10154000084B98470028F7D1A047052010BD002080
:1015500010BD00BF79264000320A0020280A002072
:10156000450A400039244000013808B5062818D83B
:10157000DFE800F00406090B0D111300002000E065
:101580000120084B05E0002002E0102000E02020B0
:10159000054B984708BD002000E001203E21034B89
:1015A000984708BD3D29400061294000CD294000F1
:1015B00010B5024CA0470028FCD010BD192A4000ED
:1015C00010B50620094B9847094B9847094B984797
:1015D000094A0A4B0A4CDA62A0470028FCD00120D5
:1015E000084B9847084B984710BD00BF691540004D
:1015F000B1154000492A4000023F0F0000040E4090
:10160000552A4000E92A4000FD2A400010B50B4849
:101610000B4B984706200B4B98470B4B98470B4BAF
:1016200098470B4A0B4B0C4C9A62A0470028FCD001
:1016300010200A4B98470A4B984710BD0090D003E2
:101640008104400069154000B1154000292A40007E
:10165000033F1F2000040E40392A4000F5284000B7
:10166000A903400008B510B9024B984708BD0120F6
:1016700008BD00BFC558400008B518B90846024B60
:10168000984708BD012008BDF5584000D0F1010081
:1016900038BF00207047000008B510B9024B9847CA
:1016A00008BD012008BD00BF0559400008B520B99C
:1016B0000846034B1146984708BD012008BD00BFEE
:1016C0005159400008B520B90846034B11469847C8
:1016D00008BD012008BD00BFA1594000034B187888
:1016E00072B6BFF35F8F00221A7070470C010020A2
:1016F000024B1A78013AD2B21A707047C80C002017
:1017000000207047002070477047000008B5064B66
:101710001A78013AD2B21A701B78044B9847044BDE
:1017200000221A7008BD00BF3B0A0020C9214000FA
:10173000CE0C002028B1034B01221A70BFF35F8F3B
:1017400062B670470C010020124B1A7812F0800F1D
:1017500002F0600208D0202A1AD15A78212A17D123
:10176000DA88072A14D10EE0202A11D158782028CF
:1017700004D0B0F12203584258417047DA88072A52
:1017800006D10549196105499A8199600120704780
:10179000002070478C19002009174000340A0020EF
:1017A000244B73B51B78002B43D1234B9847234B15
:1017B0001C8858B1224B984784423AD0214B984715
:1017C000214B224A1C78127842B901E0204BF2E703
:1017D000D4F1010238BF00221A7003E0D4F10104F1
:1017E00038BF0024134B01221A701A4B98471A4B2A
:1017F00033F81450B5F5A07518BF01254DB10E4B47
:1018000098470E4E08B10E4B00E0114B98473080C0
:1018100001E00A4B1D80114A0F4B294633F8143062
:1018200000920F4A4FF4A07505FB042281200D4C55
:10183000A0477CBDD00C002081394000CC0C00209A
:10184000E5394000DD1640003C0A0020610F002011
:10185000D5394000351740003E0A00207518400079
:10186000440A0020A93C400008B5014B984708BD38
:10187000A117400008B570B9074B1978074BD1F193
:10188000010138BF002123F81100054B1870054BEA
:101890001870054B984708BD3C0A00203E0A0020FE
:1018A000610F0020D00C0020A117400038B5124B6A
:1018B000124C002222701A80114BA1201870202097
:1018C000587002205A809A80D8801A810D4B114698
:1018D0001A706FF03D025A70012508229D70D97070
:1018E000197159719A71084B984720B1237828468D
:1018F0005B19DBB2237038BD620F0020C80C0020DA
:10190000D40C0020340A0020BD21400010B5094B42
:101910009847094B1C88094BA4B21A78084B33F836
:101920001230A34294BF00240124064B984720465E
:1019300010BD00BFDD164000CA0C0020CF0C0020F7
:10194000C40C002035174000F7B5174B9847174ACD
:10195000174B14781D78064645B91649DFF86CE038
:101960000F883EF814E0BFB2BE4504D93046124B92
:101970009847002017E00D80D4F1010138BF002105
:10198000012611701E700C4B98470C4B2846984747
:101990000B4A4FF4A07300920A4A022003FB042270
:1019A0003146094CA047FEBDDD164000CF0C00209B
:1019B000600F0020CA0C0020351740000D194000B0
:1019C000D1194000E00C0020A93C4000C40C0020CC
:1019D00013B50346C8B90D480478D4F1010438BFE3
:1019E000002459B90A4910460A4A4FF4A0730091DD
:1019F00003FB04220121084CA04706E0074A22F815
:101A00001410074A1370074B98471CBDCF0C0020D9
:101A1000D1194000E00C0020A93C4000C40C00207B
:101A2000600F00204919400070B5144B144D00247C
:101A30002C701C70134B26461C70134B1C70134BE0
:101A40001C805C80124B1C80124B9847124B1C7000
:101A5000124B1C70124B1C80124B1C80124B98476F
:101A600058B12B780133DBB22B702B78012B184641
:101A700002D10E4A137070BD012070BDD00C002041
:101A80003B0A0020610F00203C0A00203E0A002093
:101A9000CC0C0020A1174000600F0020CF0C0020CC
:101AA000C40C0020CA0C002049194000CE0C0020B4
:101AB0002DE9F047194BDFF880909E79184FB6F169
:101AC00009025642DFF874A056414FF00008C8479B
:101AD000144B3D889AF800409847134BADB233F849
:101AE0001430AB4204D8114B1C78002CEFD111E01C
:101AF0004FF4A07303FB04540D4B01351C5DADB2D4
:101B00000C4B48EA04043D8098471EB14FEA042874
:101B10000026DCE72046BDE8F08700BF340A00203D
:101B2000CA0C002035174000C40C0020CE0C002049
:101B3000E00C002049194000DD164000CF0C0020C9
:101B400008B50020014B984708BD00BFB11A4000FE
:101B500038B5134C134B227833F81230B3F5A07F0D
:101B60001BD1114D2B7873B9104B9847104B1B7834
:101B70003BB901232B702378D3F1010338BF002335
:101B800023700C4B9847064B1A78064B33F812001B
:101B9000B0F5A07018BF012038BD012038BD00BFCE
:101BA0003C0A00203E0A0020610F0020DD164000A4
:101BB000D00C0020351740002DE9F041164B0C46A3
:101BC0009D79164EB5F109014D42154FDFF8608041
:101BD0004D410020B04720B938780028F9D1BDE840
:101BE000F081C0470F4B104A1B784FF4A07E32F8AB
:101BF0001310DFF840C00EFB031E013122F8131052
:101C00000A4B0CF80E40984715B124120025E0E766
:101C10000120BDE8F08100BF340A0020511B4000C4
:101C2000CE0C00203C0A00203E0A00203517400060
:101C3000DD164000440A002008B50146014B002093
:101C4000984708BDB91B400008B5034B5888034BA3
:101C500000F07F00984708BD8C19002085394000AE
:101C600010B5124B1B782BB1114B1B681B681A79EE
:101C7000824201D8002010BD0E4A13605A889A187B
:101C80000EE05C78042C09D19C78844206D1DC7883
:101C90008C4203D1074A0120136010BD1C781B1928
:101CA0009A42EED8034A1360E4E700BF6E0F0020AB
:101CB000640F0020700F0020084B1B681B685A88B7
:101CC0009B1804E04278042A05D0052A04D0027843
:101CD00080188342F6D80020704700BF640F0020B0
:101CE000F8B500210E4C0646A047C0B10D4B1B684D
:101CF0005B6853F82650EB68984701463046A0478A
:101D000068B1094B094F1C68094E2046B847044684
:101D100010B18078B047F8E76B6898470120F8BDAC
:101D2000611C4000640F0020700F0020B91C4000AF
:101D3000C53A4000F8B50E4B0546984708B9002053
:101D4000F8BD0C4B0C4F1C680C4E2046B84704469F
:101D500030B18078E178A288B0470028F5D1EEE76D
:101D6000074B1B685B6853F825301B689847F8BD24
:101D7000611C4000700F0020B91C4000F539400084
:101D8000640F002008B5014B984708BD9D384000FE
:101D900070B50C4B1B785BB90A4B00221A700A4BCA
:101DA00001221A8070BD20460134A847E4B202E047
:101DB000064E074D002433681B681B79A342F2D8F6
:101DC000EAE700BF6E0F00206C0F0020640F0020B8
:101DD000E11C400038B50A4B1B784BB938BD5B6835
:101DE00053F824301B6903B198470134E4B201E091
:101DF000044D00242B681A681279A242EFD838BD2E
:101E00006E0F0020640F002070B5944A0023938168
:101E1000136153611378D8B2010602D5D28802B992
:101E200071E113F0600140F04C8110F0800F8B4C99
:101E300000F09480E588002D00F0438113F01F032B
:101E400052D16378062B09D0082B48D0002B40F0E4
:101E50003881022D40F0358181487BE063881D0A7E
:101E6000022D08D0032D16D0012D40F02A817D4B84
:101E70001868017829E07B4ADBB21168497C9942F5
:101E800040F21F81526852F83300774B41889847DF
:101E9000A3685D701BE0DBB2012B04D006D3022BDC
:101EA00040F00F8131E10921704A30E1704804218E
:101EB0000BE0D65C04EB430501336E80DDB28D424E
:101EC0006C48F6D3490002310170674B9847634B69
:101ED000DA889989914240F2F2809A81EFE0012DEF
:101EE00040F0EF80644835E0012B23D163780A2B62
:101EF00040F0E780012D40F0E4805F4B1B78002B21
:101F000000F0DF805D4B24791D682B681B79A342AC
:101F100040F2D78020465A4B9847002800F0D180E5
:101F20006B6853F82430DB689847564B01211870D2
:101F3000184610E0022B40F0C4806378002B40F07C
:101F4000C080022D40F0BD804F4B207998474F4B09
:101F5000188018462946444B9847B0E013F01F03F9
:101F600052D16378013B082B00F2AB80DFE813F01D
:101F70001100A900A900A9000900A900A900A90051
:101F80002000E388002B40F09C80414A334B1A61CB
:101F900095E0E388002B40F09480304B5B88012B68
:101FA00040F08F802E4B1A8822F002021A8086E0C1
:101FB000E4882A4D002C40F08480364B9847002856
:101FC0007FD0284EAA7833685B7C9A4279DC324B0A
:101FD0009847AB78284A1370002B70D07168274A55
:101FE000013B01EBC303136016462C4D06E020466F
:101FF0000021A847002864D00134E4B233681B688C
:102000001B79A342F3D85AE0012B15D163780B2B2F
:1020100057D1E388002B54D1174B1B78002B50D09D
:1020200025791F4B284664889847002849D02846C0
:10203000E1B21A4B984741E0022B42D16378012B61
:1020400002D0032B3DD12FE0E388002B39D16388E8
:10205000002B36D12079134B2FE000BF8C190020C4
:102060006C0F002074000020E9394000E8000020D7
:1020700008010020F40000206E0F0020640F0020F3
:10208000611C4000680F0020013B40006A0F0020E7
:10209000491C4000BD394000911D4000351D4000E5
:1020A000E11C4000E13B4000E38853B9638843B939
:1020B0002079184B98472079174B984708B1012091
:1020C00070BD164B1A7802F01F02012A1BD1144A68
:1020D0001278C2B11C79134B1E6833681B79A34276
:1020E00011D920460021104DA84760B1736853F8FC
:1020F0002460F368984701462046A84718B1B368A2
:1021000098470028DBD1002070BD084A0321002336
:10211000074CCEE69D3D4000413B40008C1900201D
:102120006E0F0020640F0020611C4000E4000020BE
:10213000F40000202DE9F041154690B914468F189F
:102140000A4EDFF82C8004E03068D8F80030984759
:10215000013C002CC4EB0701F6DC25EAE570BDE884
:10216000F0814FF0FF30BDE8F08100BF88190020FA
:1021700080190020054B10B51B780C460BB90B706D
:1021800010BD034B9847207010BD00BF740F002096
:10219000411B400008B5074B1B7843B10846064B6E
:1021A000984700280CBF4FF0FF30002008BD1846AC
:1021B00008BD00BF740F0020391C4000014B0120F6
:1021C00018707047740F0020014B00221A7070477E
:1021D000740F002038B50D4B00221A600C4A0D4BCD
:1021E0001A600D4A0D4B1A600D4B98470D4B9847DE
:1021F00008B90D4B98470D4D00212B680C4C986881
:10220000A0472B6800215868A04738BD88190020D6
:10221000952140008419002075214000801900207C
:10222000851D4000993840002139400010010020F0
:10223000E95B4000013802282DE9F0410D461746C0
:102240000BD94FF0FF340EE03068D8F80030295D2C
:1022500098470028F5DB013403E0044EDFF81080D6
:102260000024BC42F0D12046BDE8F081881900204E
:102270008419002010B51020154C4FF0C051A04714
:1022800003204FF00061A04704204FF00061A047F9
:10229000104B4FF400425A601C204FF0C051A04731
:1022A0001D204FF0C051A0471E204FF0C051A04745
:1022B0001F204FF0C051A0471A204FF0C051A04737
:1022C0001B204FF0C051A04701200349A04710BD7B
:1022D000D127400050140E40010000284FF08043E9
:1022E00070B55D689C68D868D9695A6D80261E6093
:1022F0005D609C60D860D9615A6505221A6070BD26
:1023000001F03F031843CB0510B50AD50B0502D5E4
:1023100040F4845005E08B044CBF40F4865040F4F8
:1023200082504B0448BF40F400604FF080431A6174
:1023300058611A4601F48050136C30B113F41F0F2A
:1023400006D00C4B9847002010BD13F41B0FF7E785
:10235000DB07F1D58B040AD5074C4FF08042013CD6
:10236000136C00D1EDE703F03003202BF7D10120EF
:1023700010BD00BFDD22400041420F0008B5122011
:10238000074B98474FF0804372229A60DA6111221E
:102390005A654FF4E0625A6005221A6008BD00BF1A
:1023A000652A400000280CBF04200020704701204F
:1023B000704700004FF080401BB1436D43F48073C1
:1023C00002E0436D23F48073436569B14B0010490B
:1023D000B1FBF3F14B43C3F1747303F510430BB13D
:1023E000013100E001B101394FF080435868043AEF
:1023F00020F0FF0058605868D2B2C9B20143042AE5
:1024000059609ABF03498A5C0022DA60704700BFB6
:102410000090D003C2B5400070474FF080435A6827
:1024200022F460525A6000221A614FF410625A611D
:102430001A6CD207FCD570474FF080430A465968A2
:1024400010B521F4605159605968044621F40041E7
:102450000020596098612146014B984710BD00BF8C
:10246000012340004FF08043186A704710B500F117
:1024700010024FF08044236A190E0170190C41704C
:10248000190A8170C37004309042F4D110BD00006D
:1024900070B50E469DF8101004464FF0804019B1FB
:1024A000416841F4004102E0416821F4004141608B
:1024B0004FF080404168950741F4C0514160416848
:1024C0004FF0804514BF41F4005121F4005114F441
:1024D000004F41600CBF4FF4A0204FF4803014F443
:1024E000803F03D040F40010AA6112E043EA0241A9
:1024F000A961A50302D540F420100AE0610302D5CA
:1025000040F4801005E0250303D4E10248BF40F405
:102510000020064900250D6005490A80054A21462C
:1025200013803246044B984770BD00BF7C0F0020DB
:10253000760F0020780F00200123400010B54FF0E7
:102540008044216C104B4FF080420B401BB10F4B6D
:102550009847002010BD8907F3D5136B0C49036021
:102560000B680C4804330B600B4900880988414311
:10257000994207D811460A6C034B1340002BE6D151
:102580001301F8D5012010BD000060C0DD2240001D
:102590007C0F0020760F0020780F00200C4B1B884A
:1025A00059434FF08043C3F800015A68920401D4A4
:1025B0008A0800E00A46C3F8042101200022C3F87B
:1025C0001421C3F82001034B1A6889181960704759
:1025D000760F00207C0F002008B54FF08040016C82
:1025E000104B4FF080420B4023B140F20223C2F85F
:1025F00020310FE04B04F2D50B4B0C491B880988A6
:102600004B430B49096899420AD311460A6C054BA2
:1026100013401BB1074B9847002008BD1001F5D5AA
:10262000012008BD000060C0780F0020760F002058
:102630007C0F0020DD2240000D4B1B8859434FF0DA
:102640008043C3F808015A68920401D48A0800E064
:102650000A46C3F80C210022C3F81C214FF48072F3
:10266000C3F82021034B01201A68891819607047AC
:10267000760F00207C0F002010B54FF080410A6CCF
:10268000114B4FF08044134033B1104B984740F248
:102690000223C4F8203110E01004F0D50C4B0D4A91
:1026A0001B88128853430C4A12689A4209D3226C41
:1026B000054B13401BB1054B9847002010BD9106F8
:1026C000F5D5012010BD00BF000060C0DD22400034
:1026D000780F0020760F00207C0F0020B1F1C05F42
:1026E00010B542642CD008D8B1F1006F14D0B1F10C
:1026F000805F1CD0002930D02EE0B1F1205F2CD0BB
:1027000003D8B1F1005F27D120E0B1F1405F24D0C0
:10271000B1F1605F20D110BD016F046FD343214040
:1027200019400167416F446F21400B4013E0036F74
:1027300013430367436F416F0B4023EA02030AE030
:10274000036F016F0B4023EA020301E0036F1343A1
:102750000367436F13434367426010BDD30741646F
:102760004CBF4166016612F00A0F14BF016241625C
:10277000930702D5C0F8801003E0130748BFC0F8E4
:10278000841041610160704710B5029C41640CB136
:10279000416600E001660BB1016500E041650AB1E8
:1027A000016300E041630161016010BDC06C7047CE
:1027B000806C70474309012200F01F0002FA00F00C
:1027C00003F5001303F207735B0218637047000000
:1027D000F7B5440904F500140D4604F2077401F03E
:1027E000F0416402B1F1005F17D009D8B1F1805F08
:1027F00013D0B1F1C05F10D0B1F1006F38D10CE04F
:10280000B1F1405F20D0B1F1605F1DD0B1F1205F28
:102810002ED10FE0276630462BE000F01F00012686
:1028200006FA00F7134B20463A469847EB07F1D5D6
:102830006766F0E700F01F010126204606FA01F165
:102840002A460D4B9847E6E705F06052012600F056
:102850001F012046B2F1605405EA0603624200936C
:10286000624106FA01F1C5F38003044CA047D2E7A8
:102870000020FEBDDD2640005D2740008927400086
:1028800070B50F4B04460E4698470E4B0546204642
:102890009847054012D00C4C54F80C3CB3420AD176
:1028A00054F8081C294206D023683046984754F84B
:1028B000083C25EA03051034002DEDD170BD00BFA2
:1028C000AD274000B12740008C0F002008B502481A
:1028D0000B21024B984708BD000E0E408128400096
:1028E00008B502480C21024B984708BD00100E4065
:1028F00081284000104B40F601011A6B22F0700253
:102900001043186303E0013901D101207047986E2C
:10291000094A0007F7D5136B23F0030343F00203C2
:10292000136340F6010301E0013BEED0916E08070E
:10293000FAD50020704700BF00040E400128074B65
:1029400005D19A6842F0254242F480129A601A68D2
:1029500042F0254242F008021A60704710140E40FF
:10296000174B1A6A12F0010F1A6A0BD022F45C128C
:1029700022F0780242F45C1242F00802104318621E
:10298000002206E00F4911400F4A0A4302431A622F
:1029900001220B48816E0A4B8903FBD5196A21F08D
:1029A0009B7121F4803141F45C1119623AB11A6AC9
:1029B00022F45C1222F0010242F45C121A627047A7
:1029C00000040E408600C8FF09FF37000F4B1A6A4B
:1029D00028B10F4911400F4A0A431A62704722F486
:1029E0005C1222F0030242F45C1242F0010209067A
:1029F00042EA11411962996E044AC907FBD5136A6C
:102A000043F09B7343F480331362704700040E401D
:102A1000FCFFC8FE02003701024B986E00F48030C4
:102A2000704700BF00040E40024B4FF000529A6204
:102A3000704700BF00040E40024B986E00F0020089
:102A4000704700BF00040E40014B0022DA6270475D
:102A500000040E40024B986E00F00400704700BF67
:102A600000040E40222819D81F280E4B4FF00102F7
:102A700008D802FA00F0996900EA010282420FD0F8
:102A800018610DE0203802FA00F0D3F8081100EACE
:102A90000102824204D0C3F8000101E00120704726
:102AA0000020704700040E40222817D81F280D4B25
:102AB0004FF0010107D801FA00F09A690240824202
:102AC0000ED15A610CE0203801FA00F0D3F8082149
:102AD0000240824204D1C3F8042101E00120704782
:102AE0000020704700040E40000200F47062024BA8
:102AF00042F001029A63704700040E40014B8022AD
:102B00001A60704700040E40044B20F07F401A6F9B
:102B100020F4780002431A67704700BF00040E409B
:102B2000436811B143F0010301E023F00103436066
:102B30007047016270474162704770B5846885686C
:102B4000AC42FBD169B104F47C15280D0A26C5F30B
:102B5000034506FB005014F4800F086001D00C30D0
:102B6000086042B104F4FE410D0BC1F303200A21B9
:102B700001FB050111603BB1C4F3021104F00F0227
:102B80000A2404FB01241C6070BDF0B5059DC468D7
:102B9000C668B442FBD189B104F47F46370B0A20E2
:102BA000C6F3032600FB0766C4F3021C04F00F07FC
:102BB00000FB0C70642707FB0060086042B104F45E
:102BC000F8110E0DC1F303400A2101FB060111604B
:102BD00043B104F07C52100FC2F303610A2202FBDE
:102BE00000121A6015B1C4F342542C60F0BD806924
:102BF0007047C16170470000034B187872B6BFF38D
:102C00005F8F00221A7070470C010020044A0023D5
:102C10001946136153619381024B1970704700BFCD
:102C20008C190020341000200D4B05221A700D4B1A
:102C300082B01A6B0092009A42F04F020092009A02
:102C400042F020020092009A1A63002302E000BFC3
:102C5000019B01330193019B0E2BF8D902B0704701
:102C600034100020004003400D4B03221A700D4B1E
:102C700082B01A6B0092009A42F04F020092009AC2
:102C800042F010020092009A1A63002302E000BF93
:102C9000019B01330193019B0E2BF8D902B07047C1
:102CA000341000200040034008B5024B1B6903B1FB
:102CB000984708BD8C1900201D4A1421431E01FBB2
:102CC00003231C4A00F10C0110B552F8214004F016
:102CD0004204422C0CD052F8212012F0020F5A7CF0
:102CE00002D06FF3830202E0012161F383025A7480
:102CF0005A7C00F10C0112F00C0F0E4A0DD152F863
:102D0000214024F0020442F8214080B103280ED073
:102D10005A7C012161F3830208E052F8210020F07F
:102D2000400042F821005A7C6FF383025A7410BDB0
:102D3000F40F002000400340574A2DE9F04F431E96
:102D4000142404FB032393F811A085B0CAF3810A6D
:102D500008B9012202E00328FBD00222924501DBE0
:102D6000012095E0DA689F68BA4206D35C7C04F0E3
:102D70004004E4B2002C00F08A805C68BE1A04EBC8
:102D8000020C1C8AC4F30904A4B2A64228BF26463A
:102D900006EB02080CEB060401942CBF4FF000096F
:102DA0004FF00109C3F80C8062463C4C22E092F8D7
:102DB00000B000F1140544F825B092F801B044F8D1
:102DC00025B092F802B044F825B092F803B044F868
:102DD00025B092F804B044F825B092F805B044F854
:102DE00025B092F806B044F825B092F807B0083242
:102DF00044F825B0DDF804B0C2EB0B05072DD6D89A
:102E000026F00702624406F007069619234C05E0F7
:102E100012F801CB00F1140544F825C0B242F7D1F5
:102E20005A7C0AF1010A6AF383025A7419B9B9F19A
:102E3000000F1AD11DE0194A0C3052F820100291EF
:102E4000029941F04F010291029941F01001029163
:102E5000029942F82010002202E000BF039A0132DA
:102E60000392039A0E2AF8D9E1E75A7C6FF386128F
:102E70005A74B845FFF474AF5A7C02F04000C0B2F7
:102E800000287FF46DAF42F080025A7400E02046C3
:102E900005B0BDE8F08F00BFF40F002000400340F4
:102EA00028B1034B01221A70BFF35F8F62B67047DF
:102EB0000C0100200C4B10B51B78044688B96BB18F
:102EC0000A4B98470A4B9A78013A04E0074B984717
:102ED000074B9A7801329A70064B9847024B1C7048
:102EE00010BD002BFAD1F1E730100020F92B400083
:102EF0007A190020A12E4000F0B5604B8BB01B78F2
:102F0000032B1AD15E4B1A6B0092009A42F04F02CB
:102F10000092009A22F001020092009A1A630023A4
:102F200002E000BF019B01330193019B0E2BF8D9F6
:102F3000544B9847544B98479EE0544E544D338819
:102F4000AC89E41AA4B2002C2AD1524A11885B1829
:102F50009BB21380EA889A4202D04F4B1B78CBB1C8
:102F6000464B04221A70464B1A6B0292029A42F0A8
:102F70004F020292029A22F001020292029A1A630E
:102F8000002302E000BF039B01330393039B0E2B3E
:102F9000F8D971E06B6953B1984740B13480AC897E
:102FA0003F2C04D93C4B00221A70402402E03A4BDB
:102FB00001221A70364B324D9F68344B1E88374BB6
:102FC00098472B6B86469B0702D4B9190B461DE028
:102FD000334B9847294B04221A702B6B0493049BA4
:102FE00043F04F030493049B23F001030493049BD9
:102FF0002B63002302E000BF059B01330593059B73
:103000000E2BF8D938E013F8012B2A655A1AD2B2E0
:10301000A2421B4AF7D31D4BA4191C80136B0693C5
:10302000069B43F04F030693069B43F01003069361
:10303000069B1363002302E000BF079B0133079345
:10304000079B0E2BF8D90E4B1A6B0892089A42F088
:103050004F020892089A22F001020892089A1A6315
:10306000002302E000BF099B01330993099B0E2B4B
:10307000F8D970460A4B98470BB0F0BD34100020C9
:1030800000400340A92C40000D2C400032100020CD
:103090008C190020F00F0020F20F0020F92B4000C7
:1030A000A12E400038B5447C034604F01000C0B2A5
:1030B00098B16FF304145C741C6874B1074802F192
:1030C0000C0550F8250010F0800F18BF42F0800268
:1030D0000139484248419968A04738BD0040034043
:1030E0002DE9F04722208D4BA2B098478C4B9A696E
:1030F00012F4006F1A4608D0D969080505D54FF4B7
:1031000000621A62874B9847AEE3D269844BD107BD
:1031100040F143811A6B520740F1A180824B1B782A
:103120001BB1824B9847824B98477D4A136BC3F380
:103130000A43082B16D0136B0293029B43F04F03F4
:103140000293029B23F004030293029B1363002368
:1031500002E000BF039B01330393039B0E2BF8D9BE
:10316000744B59E074490023106D6D4C5854013371
:10317000082BF9D1714B9847A8B9236B0493049B92
:1031800043F04F030493049B23F004030493049B34
:103190002363059003E000BF059B01330593059B66
:1031A0000E2BF8D9DCE7644B93F90030002B236B2E
:1031B00034DA0693069B43F04F030693069B43F0D5
:1031C00080030693069B2363002302E000BF079B56
:1031D00001330793079B0E2BF8D9514B1A6B0892BA
:1031E000089A42F04F020892089A22F004020892CC
:1031F000089A1A63002302E000BF099B0133099378
:10320000099B0E2BF8D94E4A002313804D4A138098
:10321000454B02221A704C4B984725E30A930A9BB0
:1032200043F04F030A930A9B23F004030A930A9B7B
:103230002363002302E000BF0B9B01330B930B9B26
:103240000E2BF8D93C4BDB8803B954E03C4A0023F1
:1032500013803C4A1380344B01221A7004E31A6B2A
:10326000D00700D5D7E71A6B12F002027CD02E4AA5
:103270001278012A0ED0022A01D0042A01D12B4B48
:1032800000E02C4B9847264B1A6B22F002021A637F
:10329000274BC1E72B4A28481B6B12888189C3F34F
:1032A0000A43D4188068A142B8BFC2EB010380185A
:1032B0009BB201461A4D02E02C6D01F8014B0C1A2D
:1032C000E4B29C42F8D39A181E4D92B2402B2A8049
:1032D000194B05D11A4ED8883188891888420CDCE0
:1032E0009A815B690E4C13B1984700B90EE0236BCD
:1032F00023F002032363154B8EE7998991422DD168
:103300005B69074C03B901E0984708BB094B984734
:10331000236B23F002032363A6E200BF652A40006B
:1033200000400340D51D400034100020A92C40006F
:103330000D2C4000292C40008C190020091E400053
:10334000F00F002032100020F92E4000692C4000C0
:103350002A883388D318338000232B80A24B1A6B22
:1033600022F002021A637FE2196B090715D5196B67
:103370000091009941F04F010091009921F008015E
:10338000009100991963019203E000BF019B013392
:103390000193019B0E2BF8D966E29349DFF85C920A
:1033A00001254FF0010C4FF0140A0CFA05F88B6957
:1033B000EEB218EA030F8C4A00F0B78105F10C0356
:1033C00051F823006C1E10F042070AFB049443D00E
:1033D000B4F810A052F82370CAF3090AC7F30A47D9
:1033E000D4F808E0E1681FFA8AFA6068CFB1C1EB4F
:1033F0000E039F4238BF3B460844194434BF4FF088
:1034000000094FF00109E1600022774906E005F16B
:10341000140E51F82EE000F802E001329A42F6D183
:1034200000E0B9463046714B9847B9F1000F02D120
:10343000574580F019826C4B0C3553F8251011F06C
:10344000200140F01182C3F81480E3682046A36095
:103450003246674B984707E251F8230010F001000D
:1034600000F03A81607CC0F38101033161F3830095
:103470006074C0B200F02001C9B2002966D010F01B
:103480000C0052F823102ED00C910C9941F04F01F2
:103490000C910C9941F010010C910C9942F82310F9
:1034A0000D9703E000BF0D9B01330D930D9B0E2B79
:1034B000F8D94D4B0C3553F825200E920E9A42F058
:1034C0004F020E920E9A22F001020E920E9A43F8CB
:1034D0002520002302E000BF0F9B01330F930F9BB9
:1034E0000E2BF8D9C0E11091109941F04F011091C5
:1034F000109921F001011091109942F823101190B8
:1035000003E000BF119B01331193119B0E2BF8D9DF
:10351000354B0C3553F825201292129A42F04F0287
:103520001292129A42F020021292129A43F8252027
:10353000002302E000BF139B01331393139B0E2B58
:10354000F8D9637C6FF3451363748DE100F0800359
:10355000DBB243B1E36861F3C7106074A360204637
:103560003246234B9847E268A3689A4223D3637C90
:1035700013F04C071FD11C4C1E4B98470C351E4BAB
:10358000C4F81480984754F825301493149B43F0E2
:103590004F031493149B23F001031493149B44F8DA
:1035A0002530159703E000BF159B01331593159B3C
:1035B0000E2BF8D958E1032E0B4F70D0637C13F01B
:1035C0000C0F3ED005F10C0357F823201692169AE3
:1035D00042F04F021692169A42F010021692169A74
:1035E00047F8232000230EE000400340B92C4000A0
:1035F000A5304000F92B4000A12E4000F40F002020
:1036000000BF179B01331793179B0E2BF8D9984BCC
:103610000C3553F825201892189A42F04F02189250
:10362000189A22F001021892189A43F825200023D4
:1036300002E000BF199B01331993199B0E2BF8D997
:1036400028E0012130468B4B9847014648B9637CFE
:10365000324660F3C7136374E3682046A360864B69
:103660009847834B0C3553F825201A921A9A42F04A
:103670004F021A921A9A22F001021A921A9A43F8E9
:103680002520002302E000BF1B9B01331B931B9BE3
:103690000E2BF8D930460021764B9847E4E0754B65
:1036A0000C3530460121984757F825301C931C9B58
:1036B00043F04F031C931C9B23F001031C931C9BA2
:1036C00047F82530002302E000BF1D9B01331D9306
:1036D0001D9B0E2BF8D9C7E051F8234014F0080FBA
:1036E00023D052F823101E911E9941F04F011E91D4
:1036F0001E9921F008011E911E9942F823101F9077
:1037000003E000BF1F9B01331F931F9B0E2BF8D9B3
:10371000574B0C3553F8252002F4E062B2F5807F58
:1037200000F0A28053F825309EE00135042D7FF48F
:103730003CAE93E0DA6991040DD49B699A0503D5F8
:103740004B4BDB699B0506D4494A9369580513D551
:10375000D369590510D5464C4FF400514FF400720F
:103760004FF4806321620120226223626161626101
:103770006361424B98476AE092693D4BD20516D58A
:10378000DA69D00513D54FF480721A625A614FF48A
:1037900000521A614FF400721A614FF480621A618C
:1037A0002220374B98470020344B98475CE0304B41
:1037B000DA69D10458D54FF48052324E2E4D1A6238
:1037C00000201427441C012107FB0060E2B2A84737
:1037D000032C2046F6D12C4B9847254B5A681C46A3
:1037E00022F001025A605A6822F002025A609A6876
:1037F00042F480729A609A6822F07F029A601A6B93
:103800002092209A42F04F022092209A22F40742FE
:1038100022F080022092209A42F400422092209AC4
:103820001A630022219203E000BF219B0133219300
:10383000219B0E2BF8D9236B43F400432363134BD6
:10384000984701232361124B9847124B98474FF436
:10385000807323614FF40063236105E0044B9A6990
:1038600092043FF567AF68E722B0BDE8F08700BF7C
:1038700000400340392D4000A5304000B52E4000E7
:10388000A92A4000F40F0020911D4000F92B4000B0
:10389000A12E40000D2C40000020704738B5174B7A
:1038A0009847174B054622209847164B9847164BCA
:1038B000502283F82223154804225A60142400233E
:1038C00004FB0302517C013301F083016FF3C71144
:1038D000032B5174F4D14FF480200D4B98470D4BBE
:1038E00000221A70054B98470B4B0C4CDA780132CA
:1038F000DA70A0472846A04738BD00BFF92B40002A
:10390000652A4000C115400000E100E0F40F0020EE
:10391000092B4000301000207A190020A12E400011
:1039200010B5124B9847124B0446012098472220AD
:10393000104B9847104B20465A6F22F480725A67FA
:103940005A6F42F400725A674FF480721A614FF452
:1039500000521A614FF400721A614FF480621A61CA
:103960004FF400621A61054B984710BDF92B4000D7
:10397000B52E4000652A400000400340A12E4000C3
:10398000002070470C4B5A6822F001025A609A6876
:1039900022F480729A6070B19A6800F07F0022F081
:1039A0007F02104398609A6842F480729A605A6865
:1039B00042F001025A60704700400340044B5868CF
:1039C00010F001001CBF986800F07F00704700BF36
:1039D00000400340024B18684005400D704700BF8F
:1039E0000040034000207047014B98609981704768
:1039F0008C19002000F00F03032B73B55BD82F4CFC
:103A000003F10C0554F8254014F4004453D101F09F
:103A10000305012D03D1002B4DD0032B4BD0402AA1
:103A200049DC274D5C1E142606FB0454258AC00978
:103A300062F309052582627C02F07F026FF3451272
:103A4000627403D0D2B26FF383026274012404FA69
:103A500003F41A4A956A25439562956A25EA040497
:103A6000946203F10C0452F824200092009A42F070
:103A70004F020092009A22F4074222F08002009244
:103A8000009A08B141F00401090201F4E06141F437
:103A90000041114300910099084A0C3342F8231069
:103AA000002302E000BF019B01330193019B0E2B19
:103AB000F8D9012000E000207CBD00BF0040034099
:103AC000F40F002000F00F02032A08B510D8094BAC
:103AD00002F10C0153F8210020F4004043F82100CA
:103AE000054B511E142000FB01300121034B984768
:103AF00008BD00BF00400340F40F0020A530400087
:103B000000F00F00032815D80B4A431E142101FBB7
:103B100003235B7C03F02003DBB24BB9074B0C3073
:103B200053F8203013F0280F0CBF002001207047FD
:103B30000120704700207047F40F00200040034030
:103B400037B500F00F04032C05463ED805F080057C
:103B50001F4BEDB29847ADB11E4A1421631E01FB05
:103B600003231D4A04F10C0152F82120D50604D488
:103B70005A7CC2F38102012A04DD5A7C42F0200201
:103B80005A7419E0144B04F10C0253F822100091FE
:103B9000009941F04F010091009941F020010091FE
:103BA000009943F82210002302E000BF019B01337B
:103BB0000193019B0E2BF8D9012505FA04F4064B5D
:103BC0001C61064B9847284600E000203EBD00BF20
:103BD000F92B4000F40F002000400340A12E4000CC
:103BE0007FB500F00F00032857D8431E14245C4310
:103BF0002B4D00F10C012A19537C6FF345135374BC
:103C0000284B53F8216016F0200F00D143E053F801
:103C100021600096009E46F04F060096009E26F01A
:103C200020060096009E43F82160002302E000BFBA
:103C3000019B01330193019B0E2BF8D9012101FA5D
:103C400000F1184B0C309E6A0E439E629E6A26EA73
:103C50000101996253F820100291029941F04F013D
:103C60000291029921F008010291029943F8201073
:103C7000002302E000BF039B01330393039B0E2B41
:103C8000F8D9537C03F01001C9B221B16FF30413CA
:103C900053742B599847012000E0002004B070BDF8
:103CA000F40F0020004003402DE9F74F00F00F090A
:103CB000B9F1030F0546019192461E4661D8324A7A
:103CC00009F10C0152F8210010F400405AD009F11A
:103CD000FF3014274743DFF8C08008EB0704607CFF
:103CE00000F02000C0B200284BD152F8212012F081
:103CF000200B47D1254A904794F811E024490EF053
:103D00001002D2B20AB188473BE04EF0100E84F8A0
:103D100011E000928847009A019BE2600C9AC4F877
:103D200004A0A66048F8072023B9D6F1010638BFE1
:103D3000002600E00126627C05F0800566F386120D
:103D40006FF3C7126274114A90470122064602FAC5
:103D500009F00D49EDB2086175B109F10C0051F897
:103D6000201011F0110507D148461146094CA04713
:103D700010B148462946A0473046054B98470120D8
:103D800000E00020BDE8FE8F00400340F92B40001A
:103D9000A12E4000392D4000F40F0020F0B500F0B6
:103DA0000F04032C85B0074600F28D80012606FA29
:103DB00004F6464D464B07F080079847FFB26E6108
:103DC000444B9847002F65D004F10C0355F823208D
:103DD000D10612D43D4B04F10C0253F8221002918B
:103DE000029941F04F010291029921F001010291E3
:103DF000029943F8221000233BE094B9334B04F1BD
:103E00000C0253F822100091009941F04F010091EB
:103E1000009921F010010091009943F8221000232D
:103E20001FE0032CEAD055F8232022F0100245F8B9
:103E3000232004F10C0255F8223013F0100F234B0D
:103E4000F7D153F8221041F0100143F8221004F189
:103E50000C0253F82220D206F9D5CFE700BF019B10
:103E600001330193019B0E2BF8D9B3E700BF039BED
:103E700001330393039B0E2BF8D9174A631E1421B9
:103E800001FB03235A7C6FF383025A740AE0204635
:103E9000B84700E0114F04F10C0355F8233013F03C
:103EA000420FF4D1094B14209A6A012132439A62DD
:103EB0009A6A22EA06069E62074B621E00FB0230E7
:103EC0002246074B984705B0F0BD00BF00400340B5
:103ED000F92B4000A12E4000F40F0020B92C400027
:103EE000A5304000044B1A680AB9044A1A601A68DF
:103EF000101818601046704738100020A8390020AC
:103F00004FF0FF3070474FF400534B600020704774
:103F1000012070470020704708B50146014B024858
:103F20009847FEE7535B4000C7B5400070474FF02D
:103F3000FF307047012838B5044601D9012038BD4B
:103F4000074DA847032801D12046A8470028F5D1EE
:103F50002046044B9847002814BF0420002038BD99
:103F6000651640009916400008B5044B9847022892
:103F700002D8034B185C08BD012008BD651640003F
:103F8000E0B540002DE9F3471F46154B80468946B2
:103F900014469847054608B901201FE0114B4046DA
:103FA00001A99847019B05FB074201336B439A42E5
:103FB00013D84FEA452A0026C4EB09090A4D08E048
:103FC000214609EB04024046A84754440028E3D1A7
:103FD0000136BE42F4D3002000E00420BDE8FC8797
:103FE0008D16400079164000AD1640002DE9F347CC
:103FF0001F46154B8046894614469847054608B922
:1040000001201FE0114B404601A99847019B05FB89
:10401000074201336B439A4213D84FEA452A0026E0
:10402000C4EB09090A4D08E0214609EB04024046A9
:10403000A84754440028E3D10136BE42F4D30020FF
:1040400000E00420BDE8FC878D1640007916400092
:10405000C516400013B51446032921D8DFE801F046
:1040600019040C02012304E00F4B01A99847019B9E
:1040700001332360002016E00C4B9847431EDBB24F
:10408000012B03D9042801D008280BD1002020706F
:1040900009E0074B9847002814BF0320002002E0E6
:1040A000042000E001201CBD791640008D16400060
:1040B0006516400030B5124C8BB0204603A904AA07
:1040C00005AB104DA84709AB0093204607AA08ABE3
:1040D00006A90D4CA047089B1A04079B42EA4352CD
:1040E000059B1A43039B42EAC322049B42EA431006
:1040F000069BA3F2BC7340EA43600BB030BD00BF27
:1041000060140E403B2B40008B2B400010B5002369
:1041100002E0CC5CC45401339342FAD110BD8369F0
:104120000239023B994204D28278836A02FB013051
:10413000704700207047002310B504461846420817
:10414000E15C42EAC012013352180B2B02F0FF006F
:10415000F5D110BD2DE9F843C56A04468D420E46DF
:1041600002D10020BDE8F883037913B9002EF8D0FE
:1041700020E000F13008414640782A460123DFF86C
:104180005090C84710B10120BDE8F883E269236A66
:104190002071D3189D42E9D2E77808E0E36960789E
:1041A000ED1841462A460123C847013FFFB2012FBF
:1041B000F4D8DBE7607804F1300132460123034D87
:1041C000A8470028DFD1E662BDE8F883853F4000BC
:1041D000ED3F400038B500212C4B0446984703467C
:1041E000002851D12378032B46D16379002B43D08B
:1041F000E06204F1300103460B540130B0F5007F5A
:10420000FAD1552384F82E32AA2384F82F32522370
:1042100084F8303084F83130612384F8323084F807
:1042200017322369412284F8332084F81622C3F31D
:10423000072284F8183284F819221A0C1B0E84F80D
:104240001B32E36884F81A22C3F30722722084F831
:104250001C3284F81D221A0C1B0E84F8140284F8F8
:10426000150284F81E2284F81F32607801236269E7
:10427000074DA847002363710021064B60780A466A
:104280009847031C18BF0123184638BD554140000C
:10429000ED3F40005540400008B568B103785BB180
:1042A000C3888B4208D1054B4078984710F0010F26
:1042B0000CBF0020032008BD092008BD693F400055
:1042C00038B504460A46407804F1300101231C4DFC
:1042D000A84780BB94F82E3294F82F2243EA02229A
:1042E000184B12B29A4228D194F8682094F8693099
:1042F000120442EA036294F866301A4394F8673075
:1043000042EA0322104B22F07F429A4216D094F8E0
:10431000840094F88520000440EA026094F882202A
:10432000104394F8832040EA022020F07F40C01A16
:1043300018BF012038BD032038BD022038BD00BFA2
:10434000853F400055AAFFFF464154002DE9F0414A
:10435000036815461A78303A092A04D9B64B1C6806
:104360000C604CB959E15C783A2CF7D10233036008
:10437000002A40F05581F1E7237883B16078AF4B94
:104380009847C1070BD4002D00F04D8100F00400C8
:10439000C0B2002814BF0A200020BDE8F081002030
:1043A00020706070A64B9847C20700F13F812DB185
:1043B00000F00400C0B2002840F03B8100212046FC
:1043C000A04DA847012817D194F8F23113B90D2058
:1043D000BDE8F08194F8F86194F8F931360446EAC2
:1043E000036694F8F63120461E4394F8F73146EA06
:1043F00003263146A84700E00026032800F02E815E
:104400000028E4D194F83C2094F83B3043EA02239E
:10441000B3F5007FDBD194F8471094F8463053EAA7
:1044200001210DD194F8561094F85730090441EA4F
:10443000036194F85430194394F8553041EA03214C
:1044400094F84050E1616B1E012BE570BFD894F8E1
:104450003D20A270002ABAD0531E1342B7D194F85F
:10446000420094F8413043EA002398B21B072081B0
:10447000ADD194F8447094F8433053EA07230DD13A
:1044800094F8523094F853701B0443EA076394F88D
:1044900050703B4394F8517043EA072394F83F80EF
:1044A00094F83E7057EA082891D005FB01FC08EB10
:1044B00010176744BB428AD3DB1BB3FBF2F3002B1C
:1044C00085D040F6F572934206D94FF6F575AB42AA
:1044D0008CBF0325022500E001250233BF1906EB3E
:1044E0000802032DA361A762226213D100287FF482
:1044F0006EAF94F85E2094F85F00120442EA006206
:1045000094F85C009B00024394F85D0042EA0022AC
:1045100062620EE000283FF45AAF6244022D6262EC
:1045200001D15B0005E003225A4303F0010303EBD2
:10453000520303F2FF13B1EB532FFFF448AF4FF0D8
:10454000FF3323610023032DE3605AD1637194F894
:10455000612094F86030607843EA0222B218626108
:1045600004F130010123384EB047002849D194F8B6
:104570002E3294F82F2243EA0222344B12B29A428E
:104580003FD194F8322094F83330120442EA0362A7
:1045900094F830301A4394F8313042EA03222C4B1D
:1045A0009A422ED194F8162294F81732120442EA55
:1045B000036294F814321A4394F8153242EA032243
:1045C000244B9A421DD194F81E3294F81F221B04EA
:1045D00043EA026394F81C22134394F81D2243EA31
:1045E0000223E36094F81A3294F81B221B0443EA76
:1045F000026394F81822134394F8192243EA022321
:104600002361154A00201388257001339BB2138063
:10461000E380E0622071BDE8F0810C20BDE8F0810C
:104620000B20BDE8F0812846BDE8F0810320BDE8FD
:10463000F0810A20BDE8F08140100020693F400071
:10464000353F4000C1424000853F400055AAFFFF72
:1046500052526141727241613C1000200120BDE85C
:10466000F08100BF01292DE9F04104460D465FD9D4
:10467000836999425CD20378022B29D0032B38D06E
:10468000012B51D101EB5106016A2B4F01EB562151
:10469000B84700B148E0216AF305013604EBD35373
:1046A000204601EB562193F83080B84700283BD1D3
:1046B000F60504EBD65494F83000EB0748EA0020E6
:1046C00002D50009BDE8F0810005000DBDE8F081CC
:1046D000016A194B01EB1521984728BB2D0604EB05
:1046E000D55494F8310094F8303043EA0020BDE806
:1046F000F081016A104B01EBD5119847A0B96D0606
:1047000004EBD55494F8320094F83330000440EAB6
:10471000036094F83030184394F8313040EA0320B5
:1047200020F07040BDE8F0814FF0FF30BDE8F0812F
:104730000120BDE8F08100BF55414000F8B50446B6
:104740000D46E1808168012901D10220F8BD03688E
:104750009A699142F9D271B91A78032A01D1596A3A
:1047600049B90022E2601A89AA42EED95B6A03EBDA
:104770001513236119E09E78114F36010CE0206873
:10478000B847421C014619D00128DED923689B692D
:104790009842DAD2AD1BADB2B542F0D2E1602068EA
:1047A000084B984700EB1510206105F00F056D01CF
:1047B000236830355B1963610020F8BD0120F8BD26
:1047C000654640001F4140000129F8B504460D46EA
:1047D000164670D9836999426DD20378022B3AD07C
:1047E000032B48D0012B62D101EB5107016A334BF7
:1047F00001EB5721984700285AD1FA05D20D15F040
:104800000105F3B207D0A11891F8301001F00F01A3
:1048100041EA0313DBB2A218216A82F83030013773
:1048200001232371204601EB5721244B9847002890
:104830003ED1FF05FF0D15B1C6F3071607E0E319DA
:1048400093F83030C6F3032623F00F031E43E71915
:1048500087F830602CE0016A184B01EB152198476E
:1048600030BB2D0604EBD55585F83060C6F307261E
:1048700085F831601CE0016A104B01EBD5119847B7
:10488000B0B96D0604EBD55595F833301B0603F02F
:1048900070431E43C6F3072385F8306085F8313036
:1048A000330C360E85F8323085F8336000E0022094
:1048B00001232371F8BD0220F8BD00BF554140001F
:1048C0002DE9F04105460F4631B9C66876B18369D6
:1048D0009E4228BF01260AE0234B9847012800D8B2
:1048E0003EE0AB6998423CD33E4600E00126DFF84B
:1048F00078803446AB6901349C4205D3012E02D83E
:104900000020BDE8F081022428462146C04750B16E
:10491000431C03D14FF0FF30BDE8F08101281FD0C8
:10492000B442E7D1ECE7284621466FF070420F4EC3
:10493000B04798B927B92B69EC60591C07D10AE038
:10494000284639462246B0470028F4D006E0013B0D
:104950002B6101236B712046BDE8F0810128D9D07D
:104960000120BDE8F08100BF65464000C947400016
:1049700001292DE9F84304460D4629D98369994256
:1049800026D219E020462946B847064610B900202D
:10499000BDE8F88301281BD0411C16D020462946CB
:1049A0000022C047A8B923695A1C03D001332361F0
:1049B00084F80590354604E0074FDFF820804FF07B
:1049C0000109A3699D42DDD3E1E70120BDE8F88339
:1049D0000220BDE8F88300BF65464000C94740009B
:1049E0002DE9F047C68804460136B6B20F4616B91F
:1049F0000420BDE8F0870369002BF9D016F00F08FA
:104A00005ED1C16801330361006819B90389B342FB
:104A1000EED955E08278013A12EA161250D12F4BA6
:104A200098470128054602D80220BDE8F087431CBC
:104A300002D10120BDE8F087206883699D4239D307
:104A4000002FD5D0E168264B98470546002842D074
:104A50000128E9D00130ECD020680021214B984793
:104A60000028E6D12368024630331A540130B0F5ED
:104A7000007FFAD12768294638461B4B98474FF0EC
:104A8000010AF862DFF85C9000270CE083F804A0CC
:104A900020680021C8470028CBD123680137DA6A93
:104AA000FFB20132DA6223689A78BA42EED8DA6A43
:104AB000D71BDF62E560206829460B4B98472061D1
:104AC00023684FEA481808F130084344E6806361E0
:104AD0000020BDE8F0870720BDE8F087654640006C
:104AE000C1484000554140001F4140002DE9F74FAB
:104AF0004FF0FF0906464C4630683169464B9847EF
:104B00008046002840F0848075692F78002F79D086
:104B1000EA7AE52F02F03F036AD002F00802D2B22F
:104B200012B10F2B64D101E00F2B4BD1D6F81CA092
:104B3000BAF1000F5DD007F04003DBB233B1F38868
:104B400095F80D9007F0BF07338401E0A7424FD1DD
:104B50006B7B4B454CD12B780D2123F04003013B5F
:104B60002E4C01FB03FB4FF0000801212C4B18F8E1
:104B700003E005EB0E00407815F80EE04EEA002049
:104B800069B1A047BBF1FE0F014631D83AF81B00CE
:104B90000191A04701990BF1010B814202E04FF610
:104BA000FF73984224D108F10108B8F10D0FDDD14F
:104BB000287800F04000C0B238B331B33AF81B3067
:104BC0001BB315E024B92846164B984781451FD0E2
:104BD0004FF6FF73B2693384D37A13F0010302D026
:104BE00006E00B2B14D0E85CD15C01338842F8D08E
:104BF000FF24304600210C4B9847804600283FF4A4
:104C00007BAF05E04FF0040802E07C1EE4B2F0E761
:104C10004046BDE8FE8F00BF554140006958400046
:104C200073B6400037414000E14940002DE9F74F9D
:104C30000B7806462F2B8A4601D05C2B01D10AF156
:104C4000010A0024B4609AF800301F2B05D83046C2
:104C50002146944B9847746121E157463B780AF10D
:104C6000010A2F2BF9D05C2BF7D0D6F81CB0002509
:104C7000785D6C1C1F281CD92F281AD05C2818D0EE
:104C8000B4F5807F00F004810121874B984700280C
:104C900000F0FE807F2806D8844911F8012F12B158
:104CA0008242FAD1F4E00BEB440222F8020C2546D2
:104CB000DEE707EB040A0BEB45021F2894BF042430
:104CC000002407E032F8021D202902D02E2940F0EE
:104CD000D180013D002DF5D1DAE0815401320B2A5B
:104CE000FBD14FF0000801E008F101083BF8181073
:104CF0002029F9D02E29F7D0B8F1000F01D044F0C7
:104D000003043A4608E0013D06D14FF0000C4FF095
:104D100008096746664A04E032F8021D2E29F2D1DE
:104D2000F3E73BF8180008F10108002850D02028CC
:104D300004D02E2805D1A84500F0AC8044F003042F
:104D4000EFE7CC4502D2A84515D1A3E0B9F10B0F8E
:104D500004D144F003044FF00B0939E0A84502D018
:104D600044F0030434D8BF00FFB2A8464FF00B094B
:104D70004FF0080CD5E77F280DD98DE804100021ED
:104D8000494B98479DE8041010B1101810F8800C9A
:104D900044F0020430B1474B13F8011F002971D0D1
:104DA0008142F9D144F003045F200BE047F0020791
:104DB00008E0A0F1610189B2192903D8203847F031
:104DC000010780B2B16901F80C000CF1010CA8E7F1
:104DD000B3691A78E52A01D105221A70B9F1080FD2
:104DE00001D1BF00FFB207F00C030C2B03D007F07A
:104DF0000302032A01D144F0020404F00202D2B2F9
:104E00004AB907F00307012F08BF44F01004042B30
:104E100008BF44F00804B3693046DC720021214B1E
:104E2000984710B93046244B9847B369DB7A48B1AC
:104E3000042834D103F00400C0B2002814BF0420B9
:104E400005202CE003F00403DBB243BB7369DA7A7C
:104E500002F01002D2B25AB1597D1A7D42EA012203
:104E6000D97E9B7E43EA012343EA0243B360F4E622
:104E7000052014E000220BEB45072BF81520B06944
:104E800020212AE7A0F1410189B219298ED990E7A2
:104E9000062004E0B9F10B0F7FF465AF59E7BDE8D8
:104EA000FE8F00BF3D4740002D58400062B64000D5
:104EB000E3B540006BB64000ED4A40002DE9F04FED
:104EC000856987B00DF10C08C7690C220446294694
:104ED0004046914EB0479DF81730DA075FD5002362
:104EE000EB724FF0010AE361B1460B2228464146BE
:104EF000C847BAF1050F0CD9BB1E5246D10341EA8F
:104F0000520233F8021F5218598892B20029F5D183
:104F100000E05246072302F00F0000F1300139296A
:104F200088BF00F13701C2F30F1201A81954013BE9
:104F3000002AF0D106A8C1187E2001F8140C00E068
:104F400001329A4202D0A95C2029F9D1072B05D859
:104F500006A8C11811F8141C013300E02021A9543F
:104F60000132072AF2D9204600216C4B98470646A9
:104F7000002840F0C1802046694B9847064600282B
:104F800040F0BA800AF1010A1FFA8AFABAF1640FF6
:104F9000ABD10726BCE09DF81730EB72E7619DF8B6
:104FA000173003F00203DBB22BB94FF001080EE01B
:104FB00001339BB200E0002337F81320002AF7D119
:104FC00003F119080D2298FBF2F81FFA88F8204621
:104FD0000021524B98470646002840F09980DFF8A0
:104FE00048A1DFF848910746054620682169D04767
:104FF0000646002840F08C8063691B78E52B00D0C2
:1050000033B905B9E7880135ADB2454501D176E040
:10501000054620460121C84706460028E5D077E02E
:10502000204639463D4B98470646002870D1A06976
:105030003C4B9847013D4FF6FF790746ADB2C84655
:10504000394B2068216998470346064600285FD1FE
:1050500062690F215FFA85FEE0690D26D172DFF8E3
:10506000D0B00EF1FF317143577313739376D3763B
:105070001E464B4518BF30F8113016F80BC018BF4C
:105080000131013602F80C304FEA132A9444002B08
:1050900008BF4B460D2E8CF801A0EAD1434502D043
:1050A00030F811301BB945F0400E5FFA8EFE82F8E1
:1050B00000E0236801221A71204600211B4B98470B
:1050C000064628BB013DADB2002DB9D119E0656996
:1050D00033463246EA540133202BFBD10B220E4BD0
:1050E0002846A1699847A3690122DB7A03F01803D7
:1050F0002B7323681A710BE0042E09D14BE7012DA5
:105100008ED120682169084B984706460028DED0DA
:10511000304607B0BDE8F08F0D4140003D474000EC
:10512000ED4A40003741400055414000E149400010
:1051300073B6400048B9064A136803B1187009B144
:1051400000230B701160002070470B20704700BFD8
:10515000401000202DE9F0410023ADF50E7D0360E5
:105160000191524B0546174602F01F0601A805A9FA
:1051700002F01E02984702AB0B930EAB0C9318B9CA
:1051800005A801994A4B98470A9C18B9002C0CBFF6
:105190000620002017F01C0F49D048B1042802D186
:1051A00005A8444B984746F008060A9C48B179E0A8
:1051B000E37A13F0110F74D107F00407FFB2002F48
:1051C0006BD106F00803DBB2002B3ED03A4B984778
:1051D000227D677DC0F30723E17E42EA0727A27E96
:1051E000A073E373030C000E23746074002342EA7F
:1051F00001220598E37223776377A377E377A37699
:10520000E37623756375012352EA074703711CD0C7
:1052100039462A4BD0F82C809847002842D105986F
:10522000013FC7604146264B984770B13AE00028DD
:1052300038D1E37A03F01002D2B2002A2FD107F05E
:105240000207FFB20FB1D9072BD406F00803DBB277
:105250000BB146F02006059BDA6AAE71EA612C625A
:10526000227D617DE07E42EA0121A27E42EA0022A7
:1052700042EA01422A61A27FE17F120442EA01620E
:10528000217F00200A43617F2B60DB8842EA0122F4
:10529000EA60A860A861AB8004E0082002E0042076
:1052A00000E007200DF50E7DBDE8F0814D43400084
:1052B0002D4C4000BD4E4000B540400071494000BB
:1052C000554140002DE9F74F044699460023C9F89F
:1052D00000300F460068A188664B16469847054681
:1052E000002840F0C480A3791A0654D403F00203C6
:1052F000DBB2002B00F0BA80E368DE4228BF002654
:10530000AAE0A368DA0540F08A80206890F802A03D
:105310000AF1FF3A0AEA532A1AF0FF0A1AD133B9FE
:10532000216979B9544B98470146206103E06169CE
:10533000514B9847014629B9A368E268934200F2AD
:105340008F808EE00129A37900D121E0481C00D193
:105350005EE06161A37903F04003DBB273B12146E3
:1053600051F8243BA2695878DFF814C10123E047C3
:10537000A37900B14CE023F04003A3712368616975
:1053800018460193DFF8FCC0E047019B28B9A379D8
:1053900063F07F03A371022569E05FEA562B00EBFF
:1053A0000A0824D09A780BEB0A01914288BFCAEB15
:1053B000020B5878394642465FFA8BF3DFF8C0A0FB
:1053C000D04700B123E0A169C8EB010159450BD2D8
:1053D0002A4B04F1240007EB41214FF40072984757
:1053E000A37923F04003A3714FEA4B2829E0A26977
:1053F000424512D0A168E26891420ED2587804F179
:10540000240142460123DFF880C0E04728B1A37998
:1054100063F07F03A371012529E0C4F81880A06818
:10542000164BC005C00DC0F50078464538BFB046E4
:1054300020182430394642469847A37943F0400368
:10544000A371A36847444344A360D9F80030C8EB74
:1054500006064344C9F80030002E7FF452AF6BE7D4
:10546000E360A37943F02003A37100E007252846F9
:10547000BDE8FE8F99424000C14840000D41400008
:10548000ED3F40001F414000853F400038B50446D5
:10549000A1880068284B984700284BD1A37903F0D6
:1054A0002002D2B2002A45D003F04003DBB26BB138
:1054B000214651F8243BA2695878204D0123A84782
:1054C000002836D1A37923F04003A3712068E16955
:1054D0001B4B984700282DD1256AEB7A43F0200317
:1054E000EB72E3682B77A3891B0A6B77E389AB77B1
:1054F000E37BEB772369AB76238A1B0AEB76638A1F
:105500002B75638A1B0A6B750E4B9847C0F30723F4
:10551000A875EB75030C000E2B766876A379012233
:1055200023F02003A37123681A712068064B984763
:1055300038BD012038BD00BF99424000ED3F40001A
:1055400055414000B5404000D541400010B50446EB
:10555000ADF5067D019101A821460022184B984720
:10556000002829D103ABA36106ABE3612046019972
:10557000144B984790B96369B3B1DA7A02F010021C
:10558000D2B27AB1597D1A7D42EA0122D97E9B7E40
:1055900043EA012343EA0243A36005E0042808BF6D
:1055A000052009E0052007E023682046DB8800216C
:1055B000A380054B9847F1E70DF5067D10BD00BFB0
:1055C0004D4340002D4C40003D4740002DE9F04F39
:1055D000754BADF5137D05909847744B814609A92D
:1055E00005A80122984703460446002840F0D780CA
:1055F00006AB0F9312AB109309A86D4B0599984712
:105600000346002800F0BC80042840F0C8800998B8
:105610002146684B98470546002800F0B3800128D2
:1056200000F0B2800123013000F08680AEE0099CDA
:10563000614A0293204629469047029B074604F19F
:1056400030061A46F2540133B3F5007FFAD1002335
:105650002022F25401330B2BFBD1102284F83B2083
:10566000C9F3072284F847208DF81120C5F30722DB
:1056700084F84B208DF812202A0C2E23D1B25FFA29
:1056800089FB120AC9F3074A5FFA85F84FEA1969DC
:1056900084F8303084F8441084F8452084F846B00B
:1056A00084F848A084F8499084F84A8003918DF8E2
:1056B000132031462022029304F15000DFF80CC180
:1056C000E047029B099A84F8513011780B9B03291B
:1056D00003D1516A8B4208BF002384F86A30C3F3B8
:1056E00007211B0C84F864301B0A84F86B1084F8C3
:1056F000653092784FF0010C304C16E0099800218B
:10570000C76280F804C00292CDF804C0A0470137F8
:105710000346029ADDF804C070B90146F154013322
:10572000B3F5007FFAD1013AD2B2002AE6D1244B78
:1057300009A89847034630B1029309982946214A9F
:105740009047029B2BE00E9B1022DA729DF81210FC
:105750009DF81120D976DA759DF81310039A0998EF
:1057600083F816B083F818A083F8199083F81A808C
:105770001A75597501230371134B984703460EE0C0
:1057800008230CE00723D7E70223D5E70B4B099842
:1057900021469847034600283FF449AFCCE7184616
:1057A0000DF5137DBDE8F08FB54040004D4340003E
:1057B0002D4C4000C14840001F4140005541400071
:1057C000BD4E400071494000D54140000D414000B0
:1057D0000A2837B504460D4602D10D20FFF7F8FF21
:1057E00002A901F8084D28466946012201AB044C84
:1057F000A0470198012814BF4FF0FF3001203EBDA3
:10580000C5524000F8B506460F460024064D04E098
:105810003946A847431C04D00134305D0028F7D135
:1058200000E004462046F8BDD15740007F2810B55F
:1058300016D931B1FF2812D80A4B803833F810003E
:1058400010BD084A32F811408BB2844203D00131B6
:105850008029F7D10B4603F18000C0B210BD0020B3
:1058600010BD00BF60B840000023064900E00133CE
:1058700031F8132022B19042F9D1034A32F81300D3
:10588000704700BF80B6400060B9400010B50B4BB8
:1058900004469847012805D006D302280CBF0220F1
:1058A000012010BD032010BD2046054B984710F085
:1058B000030F0CBF0220002010BD00BFC10B400031
:1058C000A912400008B50020014B984708BD00BF51
:1058D0008D58400038B5054B04460D4698474000AA
:1058E00001382860024B2046984738BDCD12400051
:1058F0008D58400008B50146014B0020984708BD6F
:10590000D558400008B50020014B984708BD00BF9E
:10591000F112400010B50B4B14460122984720B1FC
:1059200002280CBF0220012010BD20460121064B99
:10593000984728B9054B9847003018BF012010BD83
:10594000012010BDF5124000E5134000091440008D
:1059500008B503460A4600201946014B984708BD82
:105960001559400010B50B4B14460122984720B141
:1059700002280CBF0220012010BD20460121064B49
:10598000984728B9054B9847003018BF012010BD33
:10599000012010BD59144000FD14400021154000A5
:1059A00008B503460A4600201946014B984708BD32
:1059B0006559400010B5234B9847234B9847012168
:1059C000224B23489847234B04220024C3F880200D
:1059D0000621C3F880211E4883F802431A601E4B3B
:1059E00098474FF060512D201C4B98472D201C4BA1
:1059F00098471C4B01221A70BFF35F8F62B61A4B97
:105A00005A61C3F8A0205A66C3F890205A655A62BA
:105A10001A6F22F001021A675A6F22F001025A67C8
:105A2000124B9847124B98472046124B9847124802
:105A3000124B9847124B9847124B9847124CA0476D
:105A4000FDE700BF0D16400075224000212B4000ED
:105A500060140E4000E100E0332B4000D1274000ED
:105A6000B52740000C010020000E0E40D52140005B
:105A7000BD044000CD054000B7C55C010100002019
:105A80008506400049084000E90940000146002021
:105A90000246034601F0B0BF70B5094B094C002522
:105AA000E41AA41003EB840602E072599047013C0B
:105AB000043D002CF9D1BDE8704006F0BBB800BF32
:105AC00040BC400044BC400070B50E4B0E4D00245D
:105AD000ED1AAD101E4603E056F82420904701341D
